:020000040000FA
:04000000C3EF3FF01B
:107F86000001C6EF3FF0720ED36E959E959C959AB2
:107F96009598938E938C938A938881B8D5EF3FF00A
:107FA600D7EF3FF0DAEF3FF08C88DBEF3FF08C98AD
:107FB60081BAE0EF3FF0E2EF3FF0E5EF3FF08C8A69
:107FC600E6EF3FF08C9A81BCEBEF3FF0EDEF3FF030
:107FD600F0EF3FF08C8CF1EF3FF08C9C81BEF6EF1A
:107FE6003FF0F8EF3FF0FBEF3FF08C8ED0EF3FF025
:0A7FF6008C9ED0EF3FF000EF00F08A
:020000040020DA
:08000000FFFFFFFFFFFFFFFF00
:020000040030CA
:0E00000000091F1EFF8181FF0FC00FE00F409F
:00000001FF
